{
  "contractName": "CoinFiAirdrop",
  "abi": [
    {
      "constant": true,
      "inputs": [],
      "name": "AIRDROP_AMOUNT",
      "outputs": [
        {
          "name": "",
          "type": "uint256"
        }
      ],
      "payable": false,
      "stateMutability": "view",
      "type": "function"
    },
    {
      "constant": false,
      "inputs": [
        {
          "name": "airdropRecipients",
          "type": "address[]"
        }
      ],
      "name": "sendAirdrop",
      "outputs": [],
      "payable": false,
      "stateMutability": "nonpayable",
      "type": "function"
    },
    {
      "constant": true,
      "inputs": [],
      "name": "owner",
      "outputs": [
        {
          "name": "",
          "type": "address"
        }
      ],
      "payable": false,
      "stateMutability": "view",
      "type": "function"
    },
    {
      "constant": false,
      "inputs": [
        {
          "name": "newOwner",
          "type": "address"
        }
      ],
      "name": "transferOwnership",
      "outputs": [],
      "payable": false,
      "stateMutability": "nonpayable",
      "type": "function"
    },
    {
      "constant": true,
      "inputs": [],
      "name": "token",
      "outputs": [
        {
          "name": "",
          "type": "address"
        }
      ],
      "payable": false,
      "stateMutability": "view",
      "type": "function"
    },
    {
      "inputs": [
        {
          "name": "_token",
          "type": "address"
        }
      ],
      "payable": false,
      "stateMutability": "nonpayable",
      "type": "constructor"
    },
    {
      "anonymous": false,
      "inputs": [
        {
          "indexed": true,
          "name": "previousOwner",
          "type": "address"
        },
        {
          "indexed": true,
          "name": "newOwner",
          "type": "address"
        }
      ],
      "name": "OwnershipTransferred",
      "type": "event"
    }
  ],
  "bytecode": "0x6060604052341561000f57600080fd5b6040516020806105ee83398101604052808051906020019091905050336000806101000a81548173ffffffffffffffffffffffffffffffffffffffff021916908373ffffffffffffffffffffffffffffffffffffffff16021790555080600160006101000a81548173ffffffffffffffffffffffffffffffffffffffff021916908373ffffffffffffffffffffffffffffffffffffffff16021790555050610532806100bc6000396000f30060606040526004361061006d576000357c0100000000000000000000000000000000000000000000000000000000900463ffffffff1680632b5b687214610072578063657d95011461009b5780638da5cb5b146100c9578063f2fde38b1461011e578063fc0c546a14610157575b600080fd5b341561007d57600080fd5b6100856101ac565b6040518082815260200191505060405180910390f35b34156100a657600080fd5b6100c7600480803590602001908201803590602001919091929050506101b9565b005b34156100d457600080fd5b6100dc610366565b604051808273ffffffffffffffffffffffffffffffffffffffff1673ffffffffffffffffffffffffffffffffffffffff16815260200191505060405180910390f35b341561012957600080fd5b610155600480803573ffffffffffffffffffffffffffffffffffffffff1690602001909190505061038b565b005b341561016257600080fd5b61016a6104e0565b604051808273ffffffffffffffffffffffffffffffffffffffff1673ffffffffffffffffffffffffffffffffffffffff16815260200191505060405180910390f35b681b1ae4d6e2ef50000081565b60008060009054906101000a900473ffffffffffffffffffffffffffffffffffffffff1673ffffffffffffffffffffffffffffffffffffffff163373ffffffffffffffffffffffffffffffffffffffff1614151561021657600080fd5b60008383905011151561022857600080fd5b600090505b8282905081101561036157600160009054906101000a900473ffffffffffffffffffffffffffffffffffffffff1673ffffffffffffffffffffffffffffffffffffffff1663a9059cbb848484818110151561028457fe5b9050602002013573ffffffffffffffffffffffffffffffffffffffff16681b1ae4d6e2ef5000006000604051602001526040518363ffffffff167c0100000000000000000000000000000000000000000000000000000000028152600401808373ffffffffffffffffffffffffffffffffffffffff1673ffffffffffffffffffffffffffffffffffffffff16815260200182815260200192505050602060405180830381600087803b151561033857600080fd5b6102c65a03f1151561034957600080fd5b5050506040518051905050808060010191505061022d565b505050565b6000809054906101000a900473ffffffffffffffffffffffffffffffffffffffff1681565b6000809054906101000a900473ffffffffffffffffffffffffffffffffffffffff1673ffffffffffffffffffffffffffffffffffffffff163373ffffffffffffffffffffffffffffffffffffffff161415156103e657600080fd5b600073ffffffffffffffffffffffffffffffffffffffff168173ffffffffffffffffffffffffffffffffffffffff161415151561042257600080fd5b8073ffffffffffffffffffffffffffffffffffffffff166000809054906101000a900473ffffffffffffffffffffffffffffffffffffffff1673ffffffffffffffffffffffffffffffffffffffff167f8be0079c531659141344cd1fd0a4f28419497f9722a3daafe3b4186f6b6457e060405160405180910390a3806000806101000a81548173ffffffffffffffffffffffffffffffffffffffff021916908373ffffffffffffffffffffffffffffffffffffffff16021790555050565b600160009054906101000a900473ffffffffffffffffffffffffffffffffffffffff16815600a165627a7a7230582083c55f948784a38e8b2bd8610a33c08b750e36b84424858ec00ba5e95b152af70029",
  "source": "pragma solidity 0.4.18;\n\n\nimport \"./ownership/Ownable.sol\";\nimport \"./token/ERC20Basic.sol\";\n\ncontract CoinFiAirdrop is Ownable {\n    uint256 public constant AIRDROP_AMOUNT = 500 * (10**18);\n\n    // Actual token instance to airdrop\n    ERC20Basic public token;\n\n    // Array of airdrop recipients\n    /* address[] public airdropRecipients; */\n\n    function CoinFiAirdrop(ERC20Basic _token) public {\n        token = _token;\n    }\n\n    /* function getAirdropRecipients() public view returns (address[]) {\n        return airdropRecipients;\n    } */\n\n    /* function setAirdropRecipients(address[] whitelistAddresses) external onlyOwner {\n        airdropRecipients = whitelistAddresses;\n    } */\n\n    function sendAirdrop(address[] airdropRecipients) external onlyOwner {\n        require(airdropRecipients.length > 0);\n\n        for (uint i = 0; i < airdropRecipients.length; i++) {\n            token.transfer(airdropRecipients[i], AIRDROP_AMOUNT);\n        }\n    }\n}\n",
  "sourcePath": "/Users/jerrychai/Blockchain/airdrop/contracts/CoinFiAirdrop.sol",
  "compiler": {
    "name": "solc",
    "version": "0.4.18+commit.9cf6e910.Emscripten.clang"
  },
  "schemaVersion": "1.0.1",
  "updatedAt": "2018-01-17T19:58:42.098Z"
}